:020000040800F2
:1000000000500020390E00088D01000899010008F9
:100010009F010008A5010008AB01000800000000D6
:10002000000000000000000000000000B101000816
:10003000BD01000800000000C9010008D50100084A
:10004000810E0008810E0008810E0008810E000854
:10005000810E0008810E0008810E0008810E000844
:10006000810E0008810E0008810E0008810E000834
:10007000810E0008810E0008810E0008810E000824
:10008000810E0008810E0008810E0008810E000814
:10009000810E0008810E0008810E0008810E000804
:1000A000810E0008810E0008810E0008810E0008F4
:1000B000810E0008810E0008810E0008810E0008E4
:1000C000810E0008810E0008810E0008810E0008D4
:1000D000810E00088D0D0008810E0008810E0008B9
:1000E000810E0008810E0008810E0008000000004B
:1000F0000000000000000000000000000000000000
:0C01000000000000000000005FF808F1A3
:10010C0010B5054C237833B9044B13B10448AFF345
:10011C0000800123237010BD80000020000000002F
:10012C00CC1F000808B5034B1BB103490348AFF3C0
:10013C00008008BD0000000084000020CC1F0008D7
:10014C0080B500AF4FF4E13000F0C8FD094800F075
:10015C001BFD00F0BDFC06E0074800F0B9FE4FF4B3
:10016C007A7000F0DBFC054B1B68002BF4D10023EC
:10017C00184680BD00380140E41F00080000002034
:10018C0080B400AF00BFBD4680BC704780B400AFE8
:10019C00FEE780B400AFFEE780B400AFFEE780B4AA
:1001AC0000AFFEE780B400AF00BFBD4680BC704717
:1001BC0080B400AF00BFBD4680BC704780B400AFB8
:1001CC0000BFBD4680BC704780B400AF00BFBD46C9
:1001DC0080BC704780B500AF154B1B68144A43F0C8
:1001EC0001031360124B5A681149124B13404B60B8
:1001FC000F4B1B680E4A23F0847323F48033136077
:10020C000B4B1B680A4A23F480231360084B5B6872
:10021C00074A23F4FE035360054B4FF41F029A6008
:10022C0000F00CF8044B4FF000629A6000BF80BDE8
:10023C00001002400000FFF800ED00E080B500AFB8
:10024C0000F002F800BF80BD80B483B000AF002383
:10025C007B6000233B603A4B1B68394A43F4803384
:10026C001360374B1B6803F400333B607B6801332E
:10027C007B603B68002B03D17B68B3F5A06FF0D19A
:10028C002F4B1B6803F40033002B02D001233B607F
:10029C0001E000233B603B68012B4BD1294B1B68D1
:1002AC00284A43F010031360264B1B68254A23F0A1
:1002BC0003031360234B1B68224A43F002031360B1
:1002CC001F4B1F4A5B6853601D4B1D4A5B68536094
:1002DC001B4B5B681A4A43F480635360184B5B6892
:1002EC00174A23F47C135360154B5B68144A43F490
:1002FC00E8135360124B1B68114A43F08073136070
:10030C0000BF0F4B1B6803F00073002BF9D00C4B94
:10031C005B680B4A23F003035360094B5B68084A84
:10032C0043F00203536000BF054B5B6803F00C0302
:10033C00082BF9D100BF0C37BD4680BC704700BFFD
:10034C00001002400020024080B487B000AF7860FB
:10035C0000237B6100233B610F23FB607B68DB7810
:10036C00002B3AD0274BDB68DB431B0A03F0070357
:10037C007B617B69C3F104033B61FA687B6922FAF8
:10038C0003F3FB607B685B781A463B6902FA03F364
:10039C007B617B689B781A46FB6813407A69134330
:1003AC007B617B691B017B61174A7B681B787969D0
:1003BC00C9B213440A4683F800237B681B7803F008
:1003CC001F0311497A6812785209D2B210460122E1
:1003DC0002FA03F341F820300FE07B681B7803F03E
:1003EC001F0309497A6812785209D2B210460122C9
:1003FC009A4000F1200341F8232000BF1C37BD4672
:10040C0080BC704700ED00E000E100E080B483B0F8
:10041C0000AF78607B68042B06D1094B1B68084A37
:10042C0043F00403136005E0054B1B68044A23F0FA
:10043C000403136000BF0C37BD4680BC704700BF7F
:10044C0010E000E080B489B000AF78603960002320
:10045C00FB6100233B610023BB610023FB60002395
:10046C007B610023BB603B68DB7803F00F03FB610F
:10047C003B68DB7803F01003002B05D03B689B78BE
:10048C001A46FB691343FB613B681B88DBB2002BEC
:10049C0044D07B681B687B610023BB6138E0012280
:1004AC00BB6902FA03F3FB603B681B881A46FB68C6
:1004BC0013403B613A69FB689A4226D1BB699B00A9
:1004CC00FB600F22FB6802FA03F3BB60BB68DB43E3
:1004DC007A6913407B61FA69FB6802FA03F37A6963
:1004EC0013437B613B68DB78282B05D10122BB6968
:1004FC009A407B685A6108E03B68DB78482B04D152
:10050C000122BB699A407B681A61BB690133BB61EC
:10051C00BB69072BC3D97B687A691A603B681B8857
:10052C00FF2B46D97B685B687B610023BB613AE09B
:10053C00BB690833012202FA03F3FB603B681B889A
:10054C001A46FB6813403B613A69FB689A4227D113
:10055C00BB699B00FB600F22FB6802FA03F3BB60D4
:10056C00BB68DB437A6913407B61FA69FB6802FA6A
:10057C0003F37A6913437B613B68DB78282B05D145
:10058C00BB69083301229A407B685A613B68DB786F
:10059C00482B05D1BB69083301229A407B681A614C
:1005AC00BB690133BB61BB69072BC1D97B687A6915
:1005BC005A6000BF2437BD4680BC704780B487B0FA
:1005CC0000AF786000237B6100233B610023FB605C
:1005DC000023BB604F4B5B6803F00C037B617B69B2
:1005EC00082B11D07B69082B3AD87B69002B03D0E0
:1005FC007B69042B04D033E07B68474A1A6033E0F4
:10060C007B68454A1A602FE0424B5B6803F4701319
:10061C003B61404B5B6803F48033FB603B699B0C94
:10062C0002333B61FB68002B06D13B693B4A03FB61
:10063C0002F27B681A6017E0364B5B6803F40033F8
:10064C00002B06D03B69354A03FB02F27B681A602B
:10065C000AE03B69304A03FB02F27B681A6003E054
:10066C007B682D4A1A6000BF2A4B5B6803F0F003CD
:10067C007B617B691B097B61294A7B6913441B786D
:10068C00DBB2BB607B681A68BB68DA407B685A6077
:10069C00204B5B6803F4E0637B617B691B0A7B6125
:1006AC001F4A7B6913441B78DBB2BB607B685A68BA
:1006BC00BB68DA407B689A60164B5B6803F4605346
:1006CC007B617B69DB0A7B61154A7B6913441B7870
:1006DC00DBB2BB607B685A68BB68DA407B68DA6067
:1006EC000C4B5B6803F440437B617B699B0B7B6128
:1006FC000C4A7B6913441B78DBB2BB607B68DA68FD
:10070C00BB68B2FBF3F27B681A6100BF1C37BD46B5
:10071C0080BC70470010024000127A0000093D00B6
:10072C00080000201800002080B483B000AF78606F
:10073C000B46FB70FB78002B06D0094B9A690849D5
:10074C007B6813438B6106E0054B9A697B68DB433E
:10075C00034913408B6100BF0C37BD4680BC70470A
:10076C000010024080B58CB000AF78603960002377
:10077C00FB620023BB6200237B6200233B620023ED
:10078C00FB617B68FB617B681B8A9BB2FB62FA6A2C
:10079C004CF6FF731340FB623B68DB881A46FB6A1E
:1007AC001343FB62FB6A9AB27B681A827B689B8953
:1007BC009BB2FB62FA6A4EF6F3131340FB623B6882
:1007CC009A883B681B8913439AB23B685B89134335
:1007DC009BB21A46FB6A1343FB62FB6A9AB27B68B4
:1007EC009A817B689B8A9BB2FB62FA6A4FF6FF4345
:1007FC001340FB623B689B891A46FB6A1343FB62FE
:10080C00FB6A9AB27B689A8207F108031846FFF7D5
:10081C00D5FEFB692E4A934202D17B69BB6201E093
:10082C003B69BB627B689B899BB21BB2002B0CDAC9
:10083C00BA6A13469B0013449A001A443B681B681F
:10084C005B00B2FBF3F37B620BE0BA6A13469B00CE
:10085C0013449A001A443B681B689B00B2FBF3F3E9
:10086C007B627B6A1B4AA2FB03235B091B01FB62B5
:10087C00FB6A1B09642202FB03F37A6AD31A3B62FC
:10088C007B689B899BB21BB2002B0CDA3B6ADB00AA
:10089C003233104AA2FB03235B0903F00703FA6A05
:1008AC001343FB620BE03B6A1B013233094AA2FB88
:1008BC0003235B0903F00F03FA6A1343FB62FB6A21
:1008CC009AB27B681A8100BF3037BD4680BD00BF2D
:1008DC00003801401F85EB5180B483B000AF7860C5
:1008EC000B46FB70FB78002B08D07B689B899BB276
:1008FC0043F400539AB27B689A8107E07B689B892A
:10090C009BB223F400539AB27B689A8100BF0C37D8
:10091C00BD4680BC704780B487B000AF78600B4692
:10092C007B8013467B7000233B610023FB6000231C
:10093C00BB6000237B617B687B617B88DBB25B09DE
:10094C00DBB23B617B8803F01F03FB600122FB6879
:10095C0002FA03F3BB603B69012B03D17B690C33B7
:10096C007B6109E03B69022B03D17B6910337B610E
:10097C0002E07B6914337B617B78002B06D07B69AA
:10098C0019687B69BA680A431A6006E07B691968C2
:10099C00BB68DA437B690A401A6000BF1C37BD464E
:1009AC0080BC704780B483B000AF78600B467B800E
:1009BC007B88C3F308039AB27B689A8000BF0C371C
:1009CC00BD4680BC704780B483B000AF78607B6854
:1009DC009B889BB2C3F308039BB218460C37BD46E9
:1009EC0080BC704780B485B000AF78600B467B80CC
:1009FC000023FB737B681B889AB27B8813409BB2E5
:100A0C00002B02D00123FB7301E00023FB73FB7B63
:100A1C0018461437BD4680BC704780B487B000AF11
:100A2C0078600B467B800023FB6000237B610023F6
:100A3C00BB600023FB747B88DBB25B09DBB2BB6061
:100A4C007B8803F01F037B6101227B6902FA03F3AD
:100A5C007B61BB68012B07D17B689B899BB21A46D3
:100A6C007B6913407B6111E0BB68022B07D17B686B
:100A7C001B8A9BB21A467B6913407B6106E07B683C
:100A8C009B8A9BB21A467B6913407B617B881B0A4D
:100A9C009BB2FB600122FB6802FA03F3FB607B68EC
:100AAC001B889BB21A46FB681340FB607B69002BCA
:100ABC0005D0FB68002B02D00123FB7401E000235E
:100ACC00FB74FB7C18461C37BD4680BC704700008D
:100ADC0080B500AF6FF00400FFF798FC0B4B1B6860
:100AEC000B4AA2FB03235B0DDAB20A4B1A70094BBB
:100AFC001B789BB21A465201D21A92001344DB00A7
:100B0C009AB2054B1A8000BF80BD00BF04000020C4
:100B1C0083DE1B439C0000209E00002080B485B027
:100B2C0000AF0346FB80FB88154A12881146154A14
:100B3C0001FB03F35360134B00229A60114B1B68AB
:100B4C00104A43F0010313600E4B1B68FB60FB68FB
:100B5C0003F00103002B04D0FB6803F48033002B5B
:100B6C00F2D0084B1B68074A23F001031360054BB6
:100B7C0000229A6000BF1437BD4680BC704700BF8E
:100B8C009E00002010E000E080B582B000AF7860DD
:100B9C00074A7B681360074B1B6898680023022286
:100BAC00002100F0ADF900BF0837BD4680BD00BF85
:100BBC00A00000201C00002080B483B000AF78603F
:100BCC007B68002B04DB7B68022B01DC012300E03B
:100BDC00002318460C37BD4680BC704780B586B0E4
:100BEC0000AFF860B9607A60FB68012B02D0FB683B
:100BFC00022B29D100237B6116E0164B1868BA68CA
:100C0C007B6913441B789BB21946FFF7CBFE00BFE0
:100C1C00104B1B6880211846FFF7E4FE0346002B9F
:100C2C00F6D07B6901337B617B687A699A42E4D3A5
:100C3C0000BF084B1B6840211846FFF7D3FE034644
:100C4C00002BF6D07B6801E04FF0FF3318461837C5
:100C5C00BD4680BDA000002080B483B000AF78609A
:100C6C007B68002B04DB7B68022B01DC002301E09A
:100C7C004FF0FF3318460C37BD4680BC704780B42C
:100C8C0085B000AFF860B9607A604FF0FF3318465A
:100C9C001437BD4680BC704780B584B000AFF86097
:100CAC00B9607A60FB68002B10D100BF20210A4884
:100CBC00FFF798FE0346002BF8D00748FFF783FE9A
:100CCC000346DAB2BB681A70012301E04FF0FF3320
:100CDC0018461037BD4680BD0044004080B588B032
:100CEC0000AF7860012144F20400FFF71DFD4FF4C2
:100CFC000073BB830323BB771823FB7707F11C031B
:100D0C0019461D48FFF79EFB4FF48063BB830423F9
:100D1C00FB7707F11C0319461748FFF793FB2523B4
:100D2C003B7203237B720323BB720123FB7207F11B
:100D3C0008031846FFF708FB7B68FB6000233B8227
:100D4C0000237B820023BB8200233B830C23FB828A
:100D5C0007F10C0319460948FFF704FD012240F284
:100D6C0025510648FFF7D7FD01210448FFF7B4FDD4
:100D7C0000BF2037BD4680BD00080140003801404F
:100D8C0080B582B000AF40F225512548FFF745FEF3
:100D9C000346002B3FD02248FFF715FE0346FB719C
:100DAC00204B1B881BB2002B35DB1E4B1B8803F41E
:100DBC008043002B10D0FB790A2B03D0194B002257
:100DCC001A8028E0174B1B886FEA43436FEA5343A2
:100DDC009AB2144B1A801EE0FB790D2B07D1114BE4
:100DEC001B8843F480439AB20E4B1A8013E00D4BD0
:100DFC001B88C3F30D030C49FA79CA54094B1B88A1
:100E0C0001339AB2074B1A80064B1B88C72B02D9A9
:100E1C00044B00221A8000BF0837BD4680BD00BFBE
:100E2C00003801406C010020A4000020002103E0E8
:100E3C000B4B5B58435004310A480B4B42189A42F7
:100E4C00F6D30A4A02E0002342F8043B084B9A42CC
:100E5C00F9D3FFF7BFF900F00FF8FFF771F97047FE
:100E6C008C20000800000020800000208000002062
:100E7C0084010020FEE7000070B500260C4D0D4CDF
:100E8C00641BA410A64209D101F09AF800260A4D61
:100E9C000A4C641BA410A64205D170BD55F8043B46
:100EAC0098470136EEE755F8043B98470136F2E7D0
:100EBC008420000884200008842000088820000872
:100ECC0003460244934200D1704703F8011BF9E733
:100EDC000FB40A4B13B51C6824B1A36913B920468F
:100EEC0000F0EAF905AB2046049AA168019300F0E2
:100EFC00F5FB02B0BDE8104004B070471C000020A8
:100F0C002DE9F7431D465D4B04461F680E4690467F
:100F1C0027B1BB6913B9384600F0CEF9584B9C4247
:100F2C0067D17C68B8F1020F06D0B8F1010F00F25E
:100F3C009F80002DC0F29C80636EDB0705D4A389D3
:100F4C00980502D4A06D00F055FA2146384600F001
:100F5C001FF9616B41B104F14403994202D0384648
:100F6C0000F0B8FA002363630023A3616360A389D4
:100F7C00190603D53846216900F0ACFAA389B8F1FB
:100F8C00020F23F44A6323F00303A3816CD001AB5B
:100F9C006A462146384600F02FFAA3891843A081EF
:100FAC00002D30D1009D284600F08CFA0646002812
:100FBC0055D1DDF80090A9454AD14FF0FF350022FC
:100FCC00A26004F14702226022610122B4F90C30C4
:100FDC006261626E43F00203D207A38105D413F45D
:100FEC00007F02D1A06D00F006FA284603B0BDE8E0
:100FFC00F083244B9C4201D1BC6893E7224B9C426A
:10100C0008BFFC688EE7002ECDD0BB6913B93846FB
:10101C0000F052F9B8F1010F08BFA389C4E90465C7
:10102C0004BF43F00103A381A289266012F00803D8
:10103C001CD0D30741BF00236D42A360A56158BFEC
:10104C00A560656E15F0010515D112F4007FC8E797
:10105C00484600F037FA06460028AED04D46A38924
:10106C0043F08003A381D0E70025A8E7A360E8E75D
:10107C004FF0FF35B9E70025B7E700BF1C00002093
:10108C001020000830200008F01F00088A89F8B5ED
:10109C00054610070C4657D44B68002B04DC0B6C30
:1010AC00002B01DC0020F8BDE66A002EFAD00023EC
:1010BC0012F480522F682B6032D0606DA3895A07CE
:1010CC0005D56368C01A636B0BB1236CC01A00237F
:1010DC000246E66A2846216AB047431CA38906D11A
:1010EC0029681D292CD8294ACA40D60728D50022A0
:1010FC0062602269D904226004D5421C01D12B689C
:10110C0003B96065616B2F600029CBD004F14403F7
:10111C00994202D0284600F0DDF900206063C2E756
:10112C00216A01232846B047411CC7D12B68002BEC
:10113C00C4D01D2B01D0162B01D12F60B2E7A3898F
:10114C0043F04003A381AEE70F69002FAAD09307A9
:10115C0018BF00230E6808BF4B69F61B0F608B602D
:10116C00002E9FDD33463A462846216AD4F828C023
:10117C00E047002806DCA3894FF0FF3043F0400322
:10118C00A38190E70744361AEAE700BF010040202C
:10119C0038B50B6905460C4613B90025284638BDF1
:1011AC0018B183690BB900F087F8144B9C421BD122
:1011BC006C68B4F90C30002BEFD0626ED00704D4FD
:1011CC00990502D4A06D00F015F928462146FFF7C9
:1011DC005DFF636E0546DA07E0D4A3899B05DDD479
:1011EC00A06D00F008F9D9E7054B9C4201D1AC6821
:1011FC00DFE7044B9C4208BFEC68DAE710200008DC
:10120C0030200008F01F0008002310B50446C0E988
:10121C000033C0E90433836081814366C2818361FA
:10122C00194608225C30FFF74BFE054B24626362C3
:10123C00044BA362044BE362044B236310BD00BF59
:10124C00951C0008B71C0008EF1C0008131D0008B3
:10125C00014900F0AFB800BF9D110008682270B5BD
:10126C004D1E55430E4605F1740100F09BF90446E2
:10127C0040B10021C0E900160C30A06005F16802F5
:10128C00FFF71EFE204670BD014800F0B3B800BF4A
:10129C006F010020014800F0AEB800BF6F010020C4
:1012AC00014800F0A7B800BF70010020014800F011
:1012BC00A2B800BF7001002010B50446FFF7F0FF84
:1012CC00A3691BB1BDE81040FFF7F0BFC4E91233AE
:1012DC002365134B134A1B68A262A34208BF012368
:1012EC00204608BFA36100F01FF86060204600F0A4
:1012FC001BF8A060204600F017F800220421E060E3
:10130C006068FFF781FF01220921A068FFF77CFFCD
:10131C0002221221E068FFF777FF0123A361D1E7D6
:10132C00EC1F00085D120008F8B50746FFF7ACFF8C
:10133C001E4B1E68B36913B93046FFF7BDFF483624
:10134C00D6E90134013B03D533680BB33668F7E7B4
:10135C00B4F90C50D5B9164B04F15800E36065662E
:10136C0000F047F8FFF796FF08222946C4E901551B
:10137C00C4E904552560A56104F15C00FFF7A0FDEC
:10138C00C4E90D55C4E912552046F8BD6834D9E7B7
:10139C0004213846FFF762FF044630600028D5D19F
:1013AC00FFF778FF0C233B60EEE700BFEC1F000853
:1013BC000100FFFF2DE9F84306468846002700F19F
:1013CC004804D4E90195B9F1010905D52468002C2C
:1013DC00F7D13846BDE8F883AB89012B07D9B5F9AD
:1013EC000E30013303D029463046C04707436835D9
:1013FC00E9E770477047704770B50E46B1F90E10AB
:10140C00144600291D4696B008DA0022B6F90C30B5
:10141C002A601A0610D44FF480630EE06A4600F07E
:10142C0059FD0028F1DB019A02F47042A2F5005339
:10143C005A425A412A60EEE740230020236016B03E
:10144C0070BD00008B8973B59D0706460C4607D509
:10145C0004F14703236023610123636102B070BD73
:10146C006A4601ABFFF7C8FF00990546304600F00D
:10147C0099F848B9B4F90C309A05EFD423F003036A
:10148C0043F00203A381E3E70D4BB362A389206011
:10149C0043F08003A381009B20616361019B5BB1DE
:1014AC003046B4F90E1000F027FD28B1A38923F0C3
:1014BC00030343F00103A381A0890543A581CDE774
:1014CC005D120008024B0146186800F06BB800BFB3
:1014DC001C00002038B50546002940D051F8043CCA
:1014EC000C1F002BB8BFE41800F036FD1C4A136823
:1014FC0033B9636014602846BDE8384000F032BD53
:10150C00A34208D9206821188B4201BF19685B6877
:10151C0009182160EDE71A465B680BB1A342FAD9B2
:10152C0011685018A0420BD1206801445018834216
:10153C001160E0D118685B68014411605360DAE710
:10154C0002D90C232B60D6E7206821188B4201BFEF
:10155C0019685B680918216063605460CBE738BD7B
:10156C007401002070B50E4E0C463168054611B959
:10157C0000F07AFB30602146284600F075FB431CD6
:10158C000AD0C41C24F00304A04207D0211A284618
:10159C0000F06AFB013001D14FF0FF34204670BDE2
:1015AC00780100202DE9F041CD1C25F0030508350C
:1015BC000C2D38BF0C25002D074601DBA94205D99F
:1015CC000C2300263B603046BDE8F0812E4E00F027
:1015DC00C3FC33681C4634BB29463846FFF7C2FFB0
:1015EC00431C04464DD134682646002E40D1236856
:1015FC003146384604EB030800F036FB80453AD1FF
:10160C00216803356D1A25F0030508350C2D38BFFC
:10161C000C2538462946FFF7A5FF01302BD023684F
:10162C002B4423600EE02268521B1ED40B2A16D9C1
:10163C006119A342256018BF5960636808BF316007
:10164C0062514B60384604F10B0600F08BFC26F01F
:10165C000706231DF21AB6D09B1BA350B3E7626892
:10166C00A3420CBF32605A60ECE723466468B2E7D1
:10167C0034467668B9E70C2338463B6000F072FCC0
:10168C00A1E72560DEE700BF74010020936810B469
:10169C00013B002B936007DA9469A34201DB0A2912
:1016AC0002D110BC00F034BB1368581C10601970C8
:1016BC00084610BC7047F8B506460F461446D518B8
:1016CC00AC4201D1002007E03A46304614F8011B29
:1016DC00FFF7DCFF431CF3D1F8BD00002DE9F04F00
:1016EC000D461446984606469DB018B183690BB951
:1016FC00FFF7E2FD894B9D421BD175686B6ED907D4
:10170C0005D4AB899A0502D4A86DFFF773FEAB899B
:10171C001B0701D52B69EBB92946304600F05CFB61
:10172C00C0B16B6EDC070ED54FF0FF301DB0BDE8BD
:10173C00F08F7B4B9D4201D1B568DFE7794B9D4221
:10174C0008BFF568DAE7AB899805EDD4A86DFFF70B
:10175C0052FEE9E70023099320238DF8293030232A
:10176C004FF00109CDF80C80DFF8BC818DF82A30E0
:10177C0023469A4613F8012B0AB1252AF9D1BAEB64
:10178C00040B0BD05B46224629463046FFF793FFED
:10179C00013000F0AA80099A5A4409929AF8003054
:1017AC00002B00F0A28000234FF0FF32CDE905237F
:1017BC000AF1010A049307938DF853301A93544697
:1017CC00052214F8011B584800F0B8FB049AD8B94C
:1017DC00D10644BF20238DF85330130744BF2B236D
:1017EC008DF853309AF800302A2B15D0544600202F
:1017FC004FF00A0C079A214611F8013B303B092B9C
:10180C004ED9B0B1079214E0A0EB080309FA03F328
:10181C001343A2460493D2E7039B191D1B68039143
:10182C00002BBBBF5B4242F0020207930793B8BF89
:10183C00049223782E2B0CD163782A2B35D1039B61
:10184C0002341A1D1B680392002BB8BF4FF0FF33F4
:10185C000593DFF8D8A003225046217800F06EFBE8
:10186C0040B14023A0EB0A0003FA00F0049B0134C2
:10187C000343049314F8011B06222D488DF82810FD
:10188C0000F05CFB00283FD02A4B1BBB039B0733AB
:10189C0023F0070308330393099B3B44099367E741
:1018AC000C4601200CFB0232A5E700234FF00A0C7A
:1018BC00194601340593204610F8012B303A092AB9
:1018CC0003D9002BC5D00591C3E7044601230CFBBB
:1018DC000121F0E703AB00932A463046164B04A9CE
:1018EC00AFF300800746781CD6D16B6ED90705D4B0
:1018FC00AB899A0502D4A86DFFF77DFDAB895B0619
:10190C003FF512AF099811E703AB00932A46304616
:10191C00094B04A900F082F8E4E700BF102000088E
:10192C0030200008F01F0008502000085620000846
:10193C005A20000800000000C31600082DE9F047EB
:10194C00164699468A680B6907469342B8BF1346F8
:10195C00336091F843200C46DDF820800AB1013346
:10196C0033602368990642BF3368023333602568BD
:10197C0015F0060506D104F1190AE36832689B1AC2
:10198C00AB4228DC94F84320131E226818BF0123B5
:10199C0092062DD44946384604F14302C047013023
:1019AC0020D02368E56803F00603042B18BF00253C
:1019BC0032684FF00006A36808BFAD1A226908BF51
:1019CC0025EAE5759342C4BF9B1AED181A34B5424B
:1019DC001AD1002008E00123524649463846C04738
:1019EC00013003D14FF0FF30BDE8F0870135C4E77B
:1019FC003020E11881F843005A1C94F84510224419
:101A0C00023382F84310C5E7012322464946384683
:101A1C00C0470130E6D00136D9E700002DE9FF4779
:101A2C000F7E9146782F80460C469A460C9D01F10C
:101A3C00430207D8622F0AD8002F00F0D980582F04
:101A4C0000F0A48004F1420584F842703AE0A7F15A
:101A5C006303152BF6D801A151F823F0C11A000825
:101A6C00D51A0008511A0008511A0008511A00081A
:101A7C00511A0008D51A0008511A0008511A00080A
:101A8C00511A0008511A0008E31B0008051B000836
:101A9C00C51B0008511A0008511A0008051C000843
:101AAC00511A0008051B0008511A0008511A0008A9
:101ABC00CD1B00082B681A1D1B682A6004F1420517
:101ACC0084F842300123A4E020682968060601F15D
:101ADC0004030AD50E682B60002E03DA2D23764200
:101AEC0084F843300A235E4819E00E6810F0400F6A
:101AFC002B6018BF36B2EFE72B682068191D2960E0
:101B0C00010601D51E6802E04606FBD51E886F2F24
:101B1C000CBF08230A235248002184F8431065683F
:101B2C00002DA8BF2168A560A4BF21F0040121608D
:101B3C000EB9002D4DD01546B6FBF3F103FB116722
:101B4C00C75D05F8017D3746BB420E46F4D9082B1C
:101B5C000BD12368DE0708D5236961689942DEBF83
:101B6C00302305F8013C05F1FF35521B22614B4631
:101B7C0021464046CDF800A003AAFFF7DFFE013056
:101B8C004CD14FF0FF3004B0BDE8F087344881F8F9
:101B9C0045702968236851F8046B29601D0614D51B
:101BAC00DF0744BF43F0200323601EB9236823F0F2
:101BBC00200323601023AFE7236843F02003236046
:101BCC007823284884F84530E3E7590648BFB6B275
:101BDC00E6E71546BBE72B682668181D6169286087
:101BEC0035061B6801D5196002E07006FBD519801B
:101BFC00002315462361BAE72B6800211A1D2A60C1
:101C0C001D686268284600F099F908B1401B6060B5
:101C1C0063682361002384F84330A8E72A464946C9
:101C2C0040462369D0470130ABD023689B0713D4BF
:101C3C00E068039B9842B8BF1846A4E701233246DC
:101C4C0049464046D04701309BD00135E3680399A3
:101C5C005B1AAB42F2DCEBE7002504F11906F5E761
:101C6C00612000087220000838B50023054D044699
:101C7C0008462B6000F096F9431C02D12B6803B187
:101C8C00236038BD7C01002010B50C46B1F90E1054
:101C9C0000F06EF90028ABBF636DA3891B1823F409
:101CAC008053ACBF6365A38110BD2DE9F0411F4685
:101CBC008B890546DB050C46164605D5022300220A
:101CCC00B1F90E1000F028F9A389324623F48053A1
:101CDC00A38128463B46B4F90E10BDE8F04100F054
:101CEC0069B810B50C46B1F90E1000F015F9431C8B
:101CFC00A38915BF606523F4805343F48053A381FB
:101D0C0018BFA38110BDB1F90E1000F0D3B80000BC
:101D1C00F8B50E461446054618B183690BB9FFF7A2
:101D2C00CBFA214B9C422BD16C68A369A360A3898D
:101D3C001A072FD523696BB323692068F6B2C01A32
:101D4C0063693746834204DC21462846FFF720FAB4
:101D5C0030BBA3680130013BA36023685A1C22608E
:101D6C001E706369834204D0A389DB0706D50A2E53
:101D7C0004D121462846FFF70BFA88B93846F8BD3E
:101D8C000A4B9C4201D1AC68CFE7094B9C4208BF7F
:101D9C00EC68CAE72146284600F01EF80028CBD094
:101DAC004FF0FF37EAE700BF102000083020000892
:101DBC00F01F000838B50446084611460022054DB0
:101DCC002A601A46FEF70AFF431C02D12B6803B1A6
:101DDC00236038BD7C010020324B70B51D6806466F
:101DEC000C4625B1AB6913B92846FFF765FA2E4BA3
:101DFC009C420FD16C68A389B4F90C2019072CD420
:101E0C00DD0611D40923336042F040034FF0FF305C
:101E1C00A3813EE0254B9C4201D1AC68EBE7244BFF
:101E2C009C4208BFEC68E6E7580712D5616B41B1DC
:101E3C0004F14403994202D03046FFF74BFB0023D8
:101E4C006363A38923F02403A381002363602369C4
:101E5C002360A38943F00803A38123694BB9A389A9
:101E6C0003F42073B3F5007F03D021463046FFF70F
:101E7C00E9FAA089B4F90C2010F001030AD0002370
:101E8C00A36063695B42A361236943B910F08000CE
:101E9C00BAD170BD810758BF6369A360F4E7002015
:101EAC00F7E700BF1C0000201020000830200008BD
:101EBC00F01F000838B50023054D044608462B607A
:101ECC00FEF7CAFE431C02D12B6803B1236038BD58
:101EDC007C01002038B50023064D04460846114607
:101EEC002B6000F057F8431C02D12B6803B1236020
:101EFC0038BD00BF7C01002038B50023054D0446D9
:101F0C0008462B60FEF758FE431C02D12B6803B128
:101F1C00236038BD7C01002038B5044608461146C4
:101F2C000022054D2A601A46FEF7A9FE431C02D179
:101F3C002B6803B1236038BD7C010020034610B52B
:101F4C00C9B202449342184601D1002003E0047840
:101F5C0001338C42F6D110BD0148FFF74BBA00BFDC
:101F6C006E0100200148FFF746BA00BF6E01002049
:101F7C0038B50446084611460022054D2A601A461B
:101F8C00FEF78AFE431C02D12B6803B1236038BDD7
:101F9C007C0100205822024B4FF0FF301A60704732
:101FAC007C010020044A05491368002B08BF0B462E
:101FBC0018441060184670478001002088010020EA
:101FCC00F8B500BFF8BC08BC9E467047F8B500BF1A
:081FDC00F8BC08BC9E467047EA
:101FE40074657374210000002000002000000000CC
:101FF40000000000000000000000000000000000DD
:1020040000000000000000000000000000000000CC
:1020140000000000000000000000000000000000BC
:1020240000000000000000000000000000000000AC
:10203400000000000000000000000000000000009C
:10204400000000000000000000000000232D302BE1
:102054002000686C4C0065666745464700303132A5
:1020640033343536373839414243444546003031FC
:10207400323334353637383961626364656600005B
:04208400310100081E
:042088000D0100083E
:10208C000100000000A24A04000000000102030449
:10209C0001020304060708090204060820000020B8
:1020AC00000000001020000830200008F01F00087D
:1020BC000000000000000000000000000000000014
:1020CC000000000000000000000000000000000004
:1020DC0000000000000000000000000000000000F4
:1020EC0000000000000000000000000000000000E4
:1020FC0000000000000000000000000000000000D4
:0400000508000E39A8
:00000001FF
